{
  "contractName": "NFTMarketplace",
  "abi": [
    {
      "inputs": [
        {
          "internalType": "address",
          "name": "_nftCollection",
          "type": "address"
        },
        {
          "internalType": "uint256",
          "name": "_serviceFee",
          "type": "uint256"
        }
      ],
      "stateMutability": "nonpayable",
      "type": "constructor"
    },
    {
      "anonymous": false,
      "inputs": [
        {
          "indexed": false,
          "internalType": "address",
          "name": "user",
          "type": "address"
        },
        {
          "indexed": false,
          "internalType": "uint256",
          "name": "amount",
          "type": "uint256"
        }
      ],
      "name": "ClaimFunds",
      "type": "event"
    },
    {
      "anonymous": false,
      "inputs": [
        {
          "indexed": false,
          "internalType": "uint256",
          "name": "offerId",
          "type": "uint256"
        },
        {
          "indexed": false,
          "internalType": "uint256",
          "name": "id",
          "type": "uint256"
        },
        {
          "indexed": false,
          "internalType": "address",
          "name": "user",
          "type": "address"
        },
        {
          "indexed": false,
          "internalType": "uint256",
          "name": "price",
          "type": "uint256"
        },
        {
          "indexed": false,
          "internalType": "bool",
          "name": "fulfilled",
          "type": "bool"
        },
        {
          "indexed": false,
          "internalType": "bool",
          "name": "cancelled",
          "type": "bool"
        }
      ],
      "name": "Offer",
      "type": "event"
    },
    {
      "anonymous": false,
      "inputs": [
        {
          "indexed": false,
          "internalType": "uint256",
          "name": "offerId",
          "type": "uint256"
        },
        {
          "indexed": false,
          "internalType": "uint256",
          "name": "id",
          "type": "uint256"
        },
        {
          "indexed": false,
          "internalType": "address",
          "name": "owner",
          "type": "address"
        }
      ],
      "name": "OfferCancelled",
      "type": "event"
    },
    {
      "anonymous": false,
      "inputs": [
        {
          "indexed": false,
          "internalType": "uint256",
          "name": "offerId",
          "type": "uint256"
        },
        {
          "indexed": false,
          "internalType": "uint256",
          "name": "id",
          "type": "uint256"
        },
        {
          "indexed": false,
          "internalType": "address",
          "name": "newOwner",
          "type": "address"
        }
      ],
      "name": "OfferFilled",
      "type": "event"
    },
    {
      "anonymous": false,
      "inputs": [
        {
          "indexed": true,
          "internalType": "address",
          "name": "previousOwner",
          "type": "address"
        },
        {
          "indexed": true,
          "internalType": "address",
          "name": "newOwner",
          "type": "address"
        }
      ],
      "name": "OwnershipTransferred",
      "type": "event"
    },
    {
      "stateMutability": "nonpayable",
      "type": "fallback"
    },
    {
      "inputs": [],
      "name": "offerCount",
      "outputs": [
        {
          "internalType": "uint256",
          "name": "",
          "type": "uint256"
        }
      ],
      "stateMutability": "view",
      "type": "function",
      "constant": true
    },
    {
      "inputs": [
        {
          "internalType": "uint256",
          "name": "",
          "type": "uint256"
        }
      ],
      "name": "offers",
      "outputs": [
        {
          "internalType": "uint256",
          "name": "offerId",
          "type": "uint256"
        },
        {
          "internalType": "uint256",
          "name": "id",
          "type": "uint256"
        },
        {
          "internalType": "address",
          "name": "user",
          "type": "address"
        },
        {
          "internalType": "uint256",
          "name": "price",
          "type": "uint256"
        },
        {
          "internalType": "bool",
          "name": "fulfilled",
          "type": "bool"
        },
        {
          "internalType": "bool",
          "name": "cancelled",
          "type": "bool"
        }
      ],
      "stateMutability": "view",
      "type": "function",
      "constant": true
    },
    {
      "inputs": [],
      "name": "owner",
      "outputs": [
        {
          "internalType": "address",
          "name": "",
          "type": "address"
        }
      ],
      "stateMutability": "view",
      "type": "function",
      "constant": true
    },
    {
      "inputs": [],
      "name": "renounceOwnership",
      "outputs": [],
      "stateMutability": "nonpayable",
      "type": "function"
    },
    {
      "inputs": [],
      "name": "serviceFee",
      "outputs": [
        {
          "internalType": "uint256",
          "name": "",
          "type": "uint256"
        }
      ],
      "stateMutability": "view",
      "type": "function",
      "constant": true
    },
    {
      "inputs": [
        {
          "internalType": "address",
          "name": "newOwner",
          "type": "address"
        }
      ],
      "name": "transferOwnership",
      "outputs": [],
      "stateMutability": "nonpayable",
      "type": "function"
    },
    {
      "inputs": [
        {
          "internalType": "address",
          "name": "",
          "type": "address"
        }
      ],
      "name": "userFunds",
      "outputs": [
        {
          "internalType": "uint256",
          "name": "",
          "type": "uint256"
        }
      ],
      "stateMutability": "view",
      "type": "function",
      "constant": true
    },
    {
      "inputs": [
        {
          "internalType": "uint256",
          "name": "_id",
          "type": "uint256"
        },
        {
          "internalType": "uint256",
          "name": "_price",
          "type": "uint256"
        }
      ],
      "name": "makeOffer",
      "outputs": [],
      "stateMutability": "nonpayable",
      "type": "function"
    },
    {
      "inputs": [
        {
          "internalType": "uint256",
          "name": "_offerId",
          "type": "uint256"
        }
      ],
      "name": "fillOffer",
      "outputs": [],
      "stateMutability": "payable",
      "type": "function",
      "payable": true
    },
    {
      "inputs": [
        {
          "internalType": "uint256",
          "name": "_offerId",
          "type": "uint256"
        }
      ],
      "name": "cancelOffer",
      "outputs": [],
      "stateMutability": "nonpayable",
      "type": "function"
    },
    {
      "inputs": [],
      "name": "claimFunds",
      "outputs": [],
      "stateMutability": "nonpayable",
      "type": "function"
    },
    {
      "inputs": [
        {
          "internalType": "address",
          "name": "_recipitient",
          "type": "address"
        }
      ],
      "name": "claim",
      "outputs": [],
      "stateMutability": "nonpayable",
      "type": "function"
    },
    {
      "inputs": [
        {
          "internalType": "uint256",
          "name": "_newServiceFee",
          "type": "uint256"
        }
      ],
      "name": "setServiceFee",
      "outputs": [],
      "stateMutability": "nonpayable",
      "type": "function"
    }
  ],
  "bytecode": "0x60806040523480156200001157600080fd5b5060405162001e1f38038062001e1f833981810160405281019062000037919062000218565b620000576200004b620000a760201b60201c565b620000af60201b60201c565b81600560006101000a81548173ffffffffffffffffffffffffffffffffffffffff021916908373ffffffffffffffffffffffffffffffffffffffff1602179055508060028190555050506200025f565b600033905090565b60008060009054906101000a900473ffffffffffffffffffffffffffffffffffffffff169050816000806101000a81548173ffffffffffffffffffffffffffffffffffffffff021916908373ffffffffffffffffffffffffffffffffffffffff1602179055508173ffffffffffffffffffffffffffffffffffffffff168173ffffffffffffffffffffffffffffffffffffffff167f8be0079c531659141344cd1fd0a4f28419497f9722a3daafe3b4186f6b6457e060405160405180910390a35050565b600080fd5b600073ffffffffffffffffffffffffffffffffffffffff82169050919050565b6000620001a58262000178565b9050919050565b620001b78162000198565b8114620001c357600080fd5b50565b600081519050620001d781620001ac565b92915050565b6000819050919050565b620001f281620001dd565b8114620001fe57600080fd5b50565b6000815190506200021281620001e7565b92915050565b6000806040838503121562000232576200023162000173565b5b60006200024285828601620001c6565b9250506020620002558582860162000201565b9150509250929050565b611bb0806200026f6000396000f3fe6080604052600436106100c65760003560e01c806385dba8611161007f5780638da5cb5b116100595780638da5cb5b1461025c578063ac30777314610287578063ef706adf1461029e578063f2fde38b146102c7576100c7565b806385dba861146101d35780638a72ea6a146101ef5780638abdf5aa14610231576100c7565b806305b7cdd3146100d95780631115c24d146101025780631e83409a1461012d5780635cdf76f814610156578063715018a61461017f5780638387c6e114610196576100c7565b5b3480156100d357600080fd5b50600080fd5b3480156100e557600080fd5b5061010060048036038101906100fb9190611154565b6102f0565b005b34801561010e57600080fd5b506101176104e9565b60405161012491906111a3565b60405180910390f35b34801561013957600080fd5b50610154600480360381019061014f919061121c565b6104ef565b005b34801561016257600080fd5b5061017d60048036038101906101789190611249565b6105b5565b005b34801561018b57600080fd5b5061019461063b565b005b3480156101a257600080fd5b506101bd60048036038101906101b8919061121c565b6106c3565b6040516101ca91906111a3565b60405180910390f35b6101ed60048036038101906101e89190611249565b6106db565b005b3480156101fb57600080fd5b5061021660048036038101906102119190611249565b610a55565b604051610228969594939291906112a0565b60405180910390f35b34801561023d57600080fd5b50610246610acb565b60405161025391906111a3565b60405180910390f35b34801561026857600080fd5b50610271610ad1565b60405161027e9190611301565b60405180910390f35b34801561029357600080fd5b5061029c610afa565b005b3480156102aa57600080fd5b506102c560048036038101906102c09190611249565b610cc1565b005b3480156102d357600080fd5b506102ee60048036038101906102e9919061121c565b610f55565b005b600560009054906101000a900473ffffffffffffffffffffffffffffffffffffffff1673ffffffffffffffffffffffffffffffffffffffff166323b872dd3330856040518463ffffffff1660e01b815260040161034f9392919061131c565b600060405180830381600087803b15801561036957600080fd5b505af115801561037d573d6000803e3d6000fd5b505050506001600081548092919061039490611382565b91905055506040518060c0016040528060015481526020018381526020013373ffffffffffffffffffffffffffffffffffffffff16815260200182815260200160001515815260200160001515815250600360006001548152602001908152602001600020600082015181600001556020820151816001015560408201518160020160006101000a81548173ffffffffffffffffffffffffffffffffffffffff021916908373ffffffffffffffffffffffffffffffffffffffff1602179055506060820151816003015560808201518160040160006101000a81548160ff02191690831515021790555060a08201518160040160016101000a81548160ff0219169083151502179055509050507f93e711896d4ef527d199d7e101922e20f918cbb248a0fb0977c52fda24aa1f1d6001548333846000806040516104dd969594939291906112a0565b60405180910390a15050565b60015481565b6104f761104d565b73ffffffffffffffffffffffffffffffffffffffff16610515610ad1565b73ffffffffffffffffffffffffffffffffffffffff161461056b576040517f08c379a000000000000000000000000000000000000000000000000000000000815260040161056290611428565b60405180910390fd5b8073ffffffffffffffffffffffffffffffffffffffff166108fc479081150290604051600060405180830381858888f193505050501580156105b1573d6000803e3d6000fd5b5050565b6105bd61104d565b73ffffffffffffffffffffffffffffffffffffffff166105db610ad1565b73ffffffffffffffffffffffffffffffffffffffff1614610631576040517f08c379a000000000000000000000000000000000000000000000000000000000815260040161062890611428565b60405180910390fd5b8060028190555050565b61064361104d565b73ffffffffffffffffffffffffffffffffffffffff16610661610ad1565b73ffffffffffffffffffffffffffffffffffffffff16146106b7576040517f08c379a00000000000000000000000000000000000000000000000000000000081526004016106ae90611428565b60405180910390fd5b6106c16000611055565b565b60046020528060005260406000206000915090505481565b600060036000838152602001908152602001600020905081816000015414610738576040517f08c379a000000000000000000000000000000000000000000000000000000000815260040161072f90611494565b60405180910390fd5b3373ffffffffffffffffffffffffffffffffffffffff168160020160009054906101000a900473ffffffffffffffffffffffffffffffffffffffff1673ffffffffffffffffffffffffffffffffffffffff1614156107cb576040517f08c379a00000000000000000000000000000000000000000000000000000000081526004016107c290611526565b60405180910390fd5b8060040160009054906101000a900460ff161561081d576040517f08c379a0000000000000000000000000000000000000000000000000000000008152600401610814906115b8565b60405180910390fd5b8060040160019054906101000a900460ff161561086f576040517f08c379a00000000000000000000000000000000000000000000000000000000081526004016108669061164a565b60405180910390fd5b806003015434146108b5576040517f08c379a00000000000000000000000000000000000000000000000000000000081526004016108ac906116dc565b60405180910390fd5b600560009054906101000a900473ffffffffffffffffffffffffffffffffffffffff1673ffffffffffffffffffffffffffffffffffffffff166323b872dd303384600101546040518463ffffffff1660e01b81526004016109189392919061131c565b600060405180830381600087803b15801561093257600080fd5b505af1158015610946573d6000803e3d6000fd5b5050505060018160040160006101000a81548160ff02191690831515021790555060006127106002543461097a91906116fc565b6109849190611785565b90506000813461099491906117b6565b905080600460008560020160009054906101000a900473ffffffffffffffffffffffffffffffffffffffff1673ffffffffffffffffffffffffffffffffffffffff1673ffffffffffffffffffffffffffffffffffffffff1681526020019081526020016000206000828254610a0991906117ea565b925050819055507fd9157c065213ada613694e84b1e27fe2efd62d85c6b82bd6c842a4999491e72a84846001015433604051610a4793929190611840565b60405180910390a150505050565b60036020528060005260406000206000915090508060000154908060010154908060020160009054906101000a900473ffffffffffffffffffffffffffffffffffffffff16908060030154908060040160009054906101000a900460ff16908060040160019054906101000a900460ff16905086565b60025481565b60008060009054906101000a900473ffffffffffffffffffffffffffffffffffffffff16905090565b6000600460003373ffffffffffffffffffffffffffffffffffffffff1673ffffffffffffffffffffffffffffffffffffffff1681526020019081526020016000205411610b7c576040517f08c379a0000000000000000000000000000000000000000000000000000000008152600401610b73906118e9565b60405180910390fd5b3373ffffffffffffffffffffffffffffffffffffffff166108fc600460003373ffffffffffffffffffffffffffffffffffffffff1673ffffffffffffffffffffffffffffffffffffffff168152602001908152602001600020549081150290604051600060405180830381858888f19350505050158015610c01573d6000803e3d6000fd5b507f4f0554190111f93f8c2ccef2cc41473f187d7f29ff5a5c308ca41f9dfe4e989a33600460003373ffffffffffffffffffffffffffffffffffffffff1673ffffffffffffffffffffffffffffffffffffffff16815260200190815260200160002054604051610c72929190611909565b60405180910390a16000600460003373ffffffffffffffffffffffffffffffffffffffff1673ffffffffffffffffffffffffffffffffffffffff16815260200190815260200160002081905550565b600060036000838152602001908152602001600020905081816000015414610d1e576040517f08c379a0000000000000000000000000000000000000000000000000000000008152600401610d1590611494565b60405180910390fd5b3373ffffffffffffffffffffffffffffffffffffffff168160020160009054906101000a900473ffffffffffffffffffffffffffffffffffffffff1673ffffffffffffffffffffffffffffffffffffffff1614610db0576040517f08c379a0000000000000000000000000000000000000000000000000000000008152600401610da7906119a4565b60405180910390fd5b600015158160040160009054906101000a900460ff16151514610e08576040517f08c379a0000000000000000000000000000000000000000000000000000000008152600401610dff90611a36565b60405180910390fd5b600015158160040160019054906101000a900460ff16151514610e60576040517f08c379a0000000000000000000000000000000000000000000000000000000008152600401610e5790611ac8565b60405180910390fd5b600560009054906101000a900473ffffffffffffffffffffffffffffffffffffffff1673ffffffffffffffffffffffffffffffffffffffff166323b872dd303384600101546040518463ffffffff1660e01b8152600401610ec39392919061131c565b600060405180830381600087803b158015610edd57600080fd5b505af1158015610ef1573d6000803e3d6000fd5b5050505060018160040160016101000a81548160ff0219169083151502179055507f5b166b4d0498ff8c4719999cb6154c5d197e6f020f9fbfcf9d347f84576cfab782826001015433604051610f4993929190611840565b60405180910390a15050565b610f5d61104d565b73ffffffffffffffffffffffffffffffffffffffff16610f7b610ad1565b73ffffffffffffffffffffffffffffffffffffffff1614610fd1576040517f08c379a0000000000000000000000000000000000000000000000000000000008152600401610fc890611428565b60405180910390fd5b600073ffffffffffffffffffffffffffffffffffffffff168173ffffffffffffffffffffffffffffffffffffffff161415611041576040517f08c379a000000000000000000000000000000000000000000000000000000000815260040161103890611b5a565b60405180910390fd5b61104a81611055565b50565b600033905090565b60008060009054906101000a900473ffffffffffffffffffffffffffffffffffffffff169050816000806101000a81548173ffffffffffffffffffffffffffffffffffffffff021916908373ffffffffffffffffffffffffffffffffffffffff1602179055508173ffffffffffffffffffffffffffffffffffffffff168173ffffffffffffffffffffffffffffffffffffffff167f8be0079c531659141344cd1fd0a4f28419497f9722a3daafe3b4186f6b6457e060405160405180910390a35050565b600080fd5b6000819050919050565b6111318161111e565b811461113c57600080fd5b50565b60008135905061114e81611128565b92915050565b6000806040838503121561116b5761116a611119565b5b60006111798582860161113f565b925050602061118a8582860161113f565b9150509250929050565b61119d8161111e565b82525050565b60006020820190506111b86000830184611194565b92915050565b600073ffffffffffffffffffffffffffffffffffffffff82169050919050565b60006111e9826111be565b9050919050565b6111f9816111de565b811461120457600080fd5b50565b600081359050611216816111f0565b92915050565b60006020828403121561123257611231611119565b5b600061124084828501611207565b91505092915050565b60006020828403121561125f5761125e611119565b5b600061126d8482850161113f565b91505092915050565b61127f816111de565b82525050565b60008115159050919050565b61129a81611285565b82525050565b600060c0820190506112b56000830189611194565b6112c26020830188611194565b6112cf6040830187611276565b6112dc6060830186611194565b6112e96080830185611291565b6112f660a0830184611291565b979650505050505050565b60006020820190506113166000830184611276565b92915050565b60006060820190506113316000830186611276565b61133e6020830185611276565b61134b6040830184611194565b949350505050565b7f4e487b7100000000000000000000000000000000000000000000000000000000600052601160045260246000fd5b600061138d8261111e565b91507fffffffffffffffffffffffffffffffffffffffffffffffffffffffffffffffff8214156113c0576113bf611353565b5b600182019050919050565b600082825260208201905092915050565b7f4f776e61626c653a2063616c6c6572206973206e6f7420746865206f776e6572600082015250565b60006114126020836113cb565b915061141d826113dc565b602082019050919050565b6000602082019050818103600083015261144181611405565b9050919050565b7f546865206f66666572206d757374206578697374000000000000000000000000600082015250565b600061147e6014836113cb565b915061148982611448565b602082019050919050565b600060208201905081810360008301526114ad81611471565b9050919050565b7f546865206f776e6572206f6620746865206f666665722063616e6e6f7420666960008201527f6c6c206974000000000000000000000000000000000000000000000000000000602082015250565b60006115106025836113cb565b915061151b826114b4565b604082019050919050565b6000602082019050818103600083015261153f81611503565b9050919050565b7f416e206f666665722063616e6e6f742062652066756c66696c6c65642074776960008201527f6365000000000000000000000000000000000000000000000000000000000000602082015250565b60006115a26022836113cb565b91506115ad82611546565b604082019050919050565b600060208201905081810360008301526115d181611595565b9050919050565b7f412063616e63656c6c6564206f666665722063616e6e6f742062652066756c6660008201527f696c6c6564000000000000000000000000000000000000000000000000000000602082015250565b60006116346025836113cb565b915061163f826115d8565b604082019050919050565b6000602082019050818103600083015261166381611627565b9050919050565b7f5468652042534320616d6f756e742073686f756c64206d61746368207769746860008201527f20746865204e4654205072696365000000000000000000000000000000000000602082015250565b60006116c6602e836113cb565b91506116d18261166a565b604082019050919050565b600060208201905081810360008301526116f5816116b9565b9050919050565b60006117078261111e565b91506117128361111e565b9250817fffffffffffffffffffffffffffffffffffffffffffffffffffffffffffffffff048311821515161561174b5761174a611353565b5b828202905092915050565b7f4e487b7100000000000000000000000000000000000000000000000000000000600052601260045260246000fd5b60006117908261111e565b915061179b8361111e565b9250826117ab576117aa611756565b5b828204905092915050565b60006117c18261111e565b91506117cc8361111e565b9250828210156117df576117de611353565b5b828203905092915050565b60006117f58261111e565b91506118008361111e565b9250827fffffffffffffffffffffffffffffffffffffffffffffffffffffffffffffffff0382111561183557611834611353565b5b828201905092915050565b60006060820190506118556000830186611194565b6118626020830185611194565b61186f6040830184611276565b949350505050565b7f54686973207573657220686173206e6f2066756e647320746f20626520636c6160008201527f696d656400000000000000000000000000000000000000000000000000000000602082015250565b60006118d36024836113cb565b91506118de82611877565b604082019050919050565b60006020820190508181036000830152611902816118c6565b9050919050565b600060408201905061191e6000830185611276565b61192b6020830184611194565b9392505050565b7f546865206f666665722063616e206f6e6c792062652063616e63656c6564206260008201527f7920746865206f776e6572000000000000000000000000000000000000000000602082015250565b600061198e602b836113cb565b915061199982611932565b604082019050919050565b600060208201905081810360008301526119bd81611981565b9050919050565b7f412066756c66696c6c6564206f666665722063616e6e6f742062652063616e6360008201527f656c6c6564000000000000000000000000000000000000000000000000000000602082015250565b6000611a206025836113cb565b9150611a2b826119c4565b604082019050919050565b60006020820190508181036000830152611a4f81611a13565b9050919050565b7f416e206f666665722063616e6e6f742062652063616e63656c6c65642074776960008201527f6365000000000000000000000000000000000000000000000000000000000000602082015250565b6000611ab26022836113cb565b9150611abd82611a56565b604082019050919050565b60006020820190508181036000830152611ae181611aa5565b9050919050565b7f4f776e61626c653a206e6577206f776e657220697320746865207a65726f206160008201527f6464726573730000000000000000000000000000000000000000000000000000602082015250565b6000611b446026836113cb565b9150611b4f82611ae8565b604082019050919050565b60006020820190508181036000830152611b7381611b37565b905091905056fea2646970667358221220d9869145bbd4025a6d1dca638025ef3d96b307a3bdeda3534dc9179224a78dcc64736f6c634300080a0033",
  "immutableReferences": {},
  "source": "// SPDX-License-Identifier: MIT\r\npragma solidity ^0.8.0;\r\n\r\nimport \"./NFTCollection.sol\";\r\nimport \"@openzeppelin/contracts/access/Ownable.sol\";\r\ncontract NFTMarketplace is Ownable {\r\n    uint256 public offerCount;\r\n    uint256 public serviceFee; // BPS = 10000. serviceFee = 1000 that means = 10 % \r\n    mapping(uint256 => _Offer) public offers;\r\n    mapping(address => uint256) public userFunds;\r\n\r\n    NFTCollection nftCollection;\r\n\r\n    struct _Offer {\r\n        uint256 offerId;\r\n        uint256 id;\r\n        address user;\r\n        uint256 price;\r\n        bool fulfilled;\r\n        bool cancelled;\r\n    }\r\n\r\n    event Offer(\r\n        uint256 offerId,\r\n        uint256 id,\r\n        address user,\r\n        uint256 price,\r\n        bool fulfilled,\r\n        bool cancelled\r\n    );\r\n\r\n    event OfferFilled(uint256 offerId, uint256 id, address newOwner);\r\n    event OfferCancelled(uint256 offerId, uint256 id, address owner);\r\n    event ClaimFunds(address user, uint256 amount);\r\n\r\n    constructor(address _nftCollection, uint _serviceFee) {\r\n        nftCollection = NFTCollection(_nftCollection);\r\n        serviceFee = _serviceFee;\r\n    }\r\n\r\n    function makeOffer(uint256 _id, uint256 _price) public {\r\n        nftCollection.transferFrom(msg.sender, address(this), _id);\r\n        offerCount++;\r\n        offers[offerCount] = _Offer(\r\n            offerCount,\r\n            _id,\r\n            msg.sender,\r\n            _price,\r\n            false,\r\n            false\r\n        );\r\n        emit Offer(offerCount, _id, msg.sender, _price, false, false);\r\n    }\r\n\r\n    function fillOffer(uint256 _offerId) public payable {\r\n        _Offer storage _offer = offers[_offerId];\r\n        require(_offer.offerId == _offerId, \"The offer must exist\");\r\n        require(\r\n            _offer.user != msg.sender,\r\n            \"The owner of the offer cannot fill it\"\r\n        );\r\n        require(!_offer.fulfilled, \"An offer cannot be fulfilled twice\");\r\n        require(!_offer.cancelled, \"A cancelled offer cannot be fulfilled\");\r\n        require(\r\n            msg.value == _offer.price,\r\n            \"The BSC amount should match with the NFT Price\"\r\n        );\r\n        //owner cut\r\n\r\n        nftCollection.transferFrom(address(this), msg.sender, _offer.id);\r\n        _offer.fulfilled = true;\r\n        uint fee = msg.value * serviceFee / 10000;\r\n        uint amount_left = msg.value - fee;\r\n        userFunds[_offer.user] += amount_left;\r\n        emit OfferFilled(_offerId, _offer.id, msg.sender);\r\n    }\r\n\r\n    function cancelOffer(uint256 _offerId) public {\r\n        _Offer storage _offer = offers[_offerId];\r\n        require(_offer.offerId == _offerId, \"The offer must exist\");\r\n        require(\r\n            _offer.user == msg.sender,\r\n            \"The offer can only be canceled by the owner\"\r\n        );\r\n        require(\r\n            _offer.fulfilled == false,\r\n            \"A fulfilled offer cannot be cancelled\"\r\n        );\r\n        require(\r\n            _offer.cancelled == false,\r\n            \"An offer cannot be cancelled twice\"\r\n        );\r\n        nftCollection.transferFrom(address(this), msg.sender, _offer.id);\r\n        _offer.cancelled = true;\r\n        emit OfferCancelled(_offerId, _offer.id, msg.sender);\r\n    }\r\n\r\n    function claimFunds() public {\r\n        require(\r\n            userFunds[msg.sender] > 0,\r\n            \"This user has no funds to be claimed\"\r\n        );\r\n        payable(msg.sender).transfer(userFunds[msg.sender]);\r\n        emit ClaimFunds(msg.sender, userFunds[msg.sender]);\r\n        userFunds[msg.sender] = 0;\r\n    }\r\n\r\n    // Fallback: reverts if Ether is sent to this smart-contract by mistake\r\n    fallback() external {\r\n        revert();\r\n    }\r\n\r\n    function claim(address _recipitient) public onlyOwner {\r\n      payable(_recipitient).transfer(address(this).balance);\r\n    }\r\n\r\n    function setServiceFee(uint _newServiceFee) public onlyOwner {\r\n        serviceFee = _newServiceFee;\r\n    }\r\n}\r\n",
  "sourcePath": "/Users/buitoan/Code/marketplace-bsc/src/contracts/NFTMarketplace.sol",
  "compiler": {
    "name": "solc",
    "version": "0.8.10+commit.fc410830.Emscripten.clang"
  },
  "schemaVersion": "3.4.3",
  "updatedAt": "2021-12-02T03:24:49.734Z",
  "networkType": "ethereum",
  "devdoc": {
    "kind": "dev",
    "methods": {
      "owner()": {
        "details": "Returns the address of the current owner."
      },
      "renounceOwnership()": {
        "details": "Leaves the contract without owner. It will not be possible to call `onlyOwner` functions anymore. Can only be called by the current owner. NOTE: Renouncing ownership will leave the contract without an owner, thereby removing any functionality that is only available to the owner."
      },
      "transferOwnership(address)": {
        "details": "Transfers ownership of the contract to a new account (`newOwner`). Can only be called by the current owner."
      }
    },
    "version": 1
  },
  "userdoc": {
    "kind": "user",
    "methods": {},
    "version": 1
  }
}