{
  "contractName": "NFTMarketplace",
  "abi": [
    {
      "inputs": [
        {
          "internalType": "address",
          "name": "_nftCollection",
          "type": "address"
        },
        {
          "internalType": "uint256",
          "name": "_serviceFee",
          "type": "uint256"
        }
      ],
      "stateMutability": "nonpayable",
      "type": "constructor"
    },
    {
      "anonymous": false,
      "inputs": [
        {
          "indexed": false,
          "internalType": "address",
          "name": "user",
          "type": "address"
        },
        {
          "indexed": false,
          "internalType": "uint256",
          "name": "amount",
          "type": "uint256"
        }
      ],
      "name": "ClaimFunds",
      "type": "event"
    },
    {
      "anonymous": false,
      "inputs": [
        {
          "indexed": false,
          "internalType": "uint256",
          "name": "offerId",
          "type": "uint256"
        },
        {
          "indexed": false,
          "internalType": "uint256",
          "name": "id",
          "type": "uint256"
        },
        {
          "indexed": false,
          "internalType": "address",
          "name": "user",
          "type": "address"
        },
        {
          "indexed": false,
          "internalType": "uint256",
          "name": "price",
          "type": "uint256"
        },
        {
          "indexed": false,
          "internalType": "bool",
          "name": "fulfilled",
          "type": "bool"
        },
        {
          "indexed": false,
          "internalType": "bool",
          "name": "cancelled",
          "type": "bool"
        }
      ],
      "name": "Offer",
      "type": "event"
    },
    {
      "anonymous": false,
      "inputs": [
        {
          "indexed": false,
          "internalType": "uint256",
          "name": "offerId",
          "type": "uint256"
        },
        {
          "indexed": false,
          "internalType": "uint256",
          "name": "id",
          "type": "uint256"
        },
        {
          "indexed": false,
          "internalType": "address",
          "name": "owner",
          "type": "address"
        }
      ],
      "name": "OfferCancelled",
      "type": "event"
    },
    {
      "anonymous": false,
      "inputs": [
        {
          "indexed": false,
          "internalType": "uint256",
          "name": "offerId",
          "type": "uint256"
        },
        {
          "indexed": false,
          "internalType": "uint256",
          "name": "id",
          "type": "uint256"
        },
        {
          "indexed": false,
          "internalType": "address",
          "name": "newOwner",
          "type": "address"
        },
        {
          "indexed": false,
          "internalType": "uint256",
          "name": "amount",
          "type": "uint256"
        },
        {
          "indexed": false,
          "internalType": "uint256",
          "name": "fee",
          "type": "uint256"
        }
      ],
      "name": "OfferFilled",
      "type": "event"
    },
    {
      "anonymous": false,
      "inputs": [
        {
          "indexed": true,
          "internalType": "address",
          "name": "previousOwner",
          "type": "address"
        },
        {
          "indexed": true,
          "internalType": "address",
          "name": "newOwner",
          "type": "address"
        }
      ],
      "name": "OwnershipTransferred",
      "type": "event"
    },
    {
      "stateMutability": "nonpayable",
      "type": "fallback"
    },
    {
      "inputs": [],
      "name": "offerCount",
      "outputs": [
        {
          "internalType": "uint256",
          "name": "",
          "type": "uint256"
        }
      ],
      "stateMutability": "view",
      "type": "function",
      "constant": true
    },
    {
      "inputs": [
        {
          "internalType": "uint256",
          "name": "",
          "type": "uint256"
        }
      ],
      "name": "offers",
      "outputs": [
        {
          "internalType": "uint256",
          "name": "offerId",
          "type": "uint256"
        },
        {
          "internalType": "uint256",
          "name": "id",
          "type": "uint256"
        },
        {
          "internalType": "address",
          "name": "user",
          "type": "address"
        },
        {
          "internalType": "uint256",
          "name": "price",
          "type": "uint256"
        },
        {
          "internalType": "bool",
          "name": "fulfilled",
          "type": "bool"
        },
        {
          "internalType": "bool",
          "name": "cancelled",
          "type": "bool"
        }
      ],
      "stateMutability": "view",
      "type": "function",
      "constant": true
    },
    {
      "inputs": [],
      "name": "owner",
      "outputs": [
        {
          "internalType": "address",
          "name": "",
          "type": "address"
        }
      ],
      "stateMutability": "view",
      "type": "function",
      "constant": true
    },
    {
      "inputs": [],
      "name": "renounceOwnership",
      "outputs": [],
      "stateMutability": "nonpayable",
      "type": "function"
    },
    {
      "inputs": [],
      "name": "serviceFee",
      "outputs": [
        {
          "internalType": "uint256",
          "name": "",
          "type": "uint256"
        }
      ],
      "stateMutability": "view",
      "type": "function",
      "constant": true
    },
    {
      "inputs": [
        {
          "internalType": "address",
          "name": "newOwner",
          "type": "address"
        }
      ],
      "name": "transferOwnership",
      "outputs": [],
      "stateMutability": "nonpayable",
      "type": "function"
    },
    {
      "inputs": [
        {
          "internalType": "uint256",
          "name": "_id",
          "type": "uint256"
        },
        {
          "internalType": "uint256",
          "name": "_price",
          "type": "uint256"
        }
      ],
      "name": "makeOffer",
      "outputs": [],
      "stateMutability": "nonpayable",
      "type": "function"
    },
    {
      "inputs": [
        {
          "internalType": "uint256",
          "name": "_offerId",
          "type": "uint256"
        }
      ],
      "name": "fillOffer",
      "outputs": [],
      "stateMutability": "payable",
      "type": "function",
      "payable": true
    },
    {
      "inputs": [
        {
          "internalType": "uint256",
          "name": "_offerId",
          "type": "uint256"
        }
      ],
      "name": "cancelOffer",
      "outputs": [],
      "stateMutability": "nonpayable",
      "type": "function"
    },
    {
      "inputs": [
        {
          "internalType": "address",
          "name": "_recipitient",
          "type": "address"
        }
      ],
      "name": "claim",
      "outputs": [],
      "stateMutability": "nonpayable",
      "type": "function"
    },
    {
      "inputs": [
        {
          "internalType": "uint256",
          "name": "_newServiceFee",
          "type": "uint256"
        }
      ],
      "name": "setServiceFee",
      "outputs": [],
      "stateMutability": "nonpayable",
      "type": "function"
    }
  ],
  "bytecode": "0x60806040523480156200001157600080fd5b5060405162001afd38038062001afd833981810160405281019062000037919062000218565b620000576200004b620000a760201b60201c565b620000af60201b60201c565b81600460006101000a81548173ffffffffffffffffffffffffffffffffffffffff021916908373ffffffffffffffffffffffffffffffffffffffff1602179055508060028190555050506200025f565b600033905090565b60008060009054906101000a900473ffffffffffffffffffffffffffffffffffffffff169050816000806101000a81548173ffffffffffffffffffffffffffffffffffffffff021916908373ffffffffffffffffffffffffffffffffffffffff1602179055508173ffffffffffffffffffffffffffffffffffffffff168173ffffffffffffffffffffffffffffffffffffffff167f8be0079c531659141344cd1fd0a4f28419497f9722a3daafe3b4186f6b6457e060405160405180910390a35050565b600080fd5b600073ffffffffffffffffffffffffffffffffffffffff82169050919050565b6000620001a58262000178565b9050919050565b620001b78162000198565b8114620001c357600080fd5b50565b600081519050620001d781620001ac565b92915050565b6000819050919050565b620001f281620001dd565b8114620001fe57600080fd5b50565b6000815190506200021281620001e7565b92915050565b6000806040838503121562000232576200023162000173565b5b60006200024285828601620001c6565b9250506020620002558582860162000201565b9150509250929050565b61188e806200026f6000396000f3fe6080604052600436106100a05760003560e01c806385dba8611161006457806385dba861146101705780638a72ea6a1461018c5780638abdf5aa146101ce5780638da5cb5b146101f9578063ef706adf14610224578063f2fde38b1461024d576100a1565b806305b7cdd3146100b35780631115c24d146100dc5780631e83409a146101075780635cdf76f814610130578063715018a614610159576100a1565b5b3480156100ad57600080fd5b50600080fd5b3480156100bf57600080fd5b506100da60048036038101906100d59190610ef0565b610276565b005b3480156100e857600080fd5b506100f161046f565b6040516100fe9190610f3f565b60405180910390f35b34801561011357600080fd5b5061012e60048036038101906101299190610fb8565b610475565b005b34801561013c57600080fd5b5061015760048036038101906101529190610fe5565b61053b565b005b34801561016557600080fd5b5061016e6105c1565b005b61018a60048036038101906101859190610fe5565b610649565b005b34801561019857600080fd5b506101b360048036038101906101ae9190610fe5565b6109b8565b6040516101c59695949392919061103c565b60405180910390f35b3480156101da57600080fd5b506101e3610a2e565b6040516101f09190610f3f565b60405180910390f35b34801561020557600080fd5b5061020e610a34565b60405161021b919061109d565b60405180910390f35b34801561023057600080fd5b5061024b60048036038101906102469190610fe5565b610a5d565b005b34801561025957600080fd5b50610274600480360381019061026f9190610fb8565b610cf1565b005b600460009054906101000a900473ffffffffffffffffffffffffffffffffffffffff1673ffffffffffffffffffffffffffffffffffffffff166323b872dd3330856040518463ffffffff1660e01b81526004016102d5939291906110b8565b600060405180830381600087803b1580156102ef57600080fd5b505af1158015610303573d6000803e3d6000fd5b505050506001600081548092919061031a9061111e565b91905055506040518060c0016040528060015481526020018381526020013373ffffffffffffffffffffffffffffffffffffffff16815260200182815260200160001515815260200160001515815250600360006001548152602001908152602001600020600082015181600001556020820151816001015560408201518160020160006101000a81548173ffffffffffffffffffffffffffffffffffffffff021916908373ffffffffffffffffffffffffffffffffffffffff1602179055506060820151816003015560808201518160040160006101000a81548160ff02191690831515021790555060a08201518160040160016101000a81548160ff0219169083151502179055509050507f93e711896d4ef527d199d7e101922e20f918cbb248a0fb0977c52fda24aa1f1d6001548333846000806040516104639695949392919061103c565b60405180910390a15050565b60015481565b61047d610de9565b73ffffffffffffffffffffffffffffffffffffffff1661049b610a34565b73ffffffffffffffffffffffffffffffffffffffff16146104f1576040517f08c379a00000000000000000000000000000000000000000000000000000000081526004016104e8906111c4565b60405180910390fd5b8073ffffffffffffffffffffffffffffffffffffffff166108fc479081150290604051600060405180830381858888f19350505050158015610537573d6000803e3d6000fd5b5050565b610543610de9565b73ffffffffffffffffffffffffffffffffffffffff16610561610a34565b73ffffffffffffffffffffffffffffffffffffffff16146105b7576040517f08c379a00000000000000000000000000000000000000000000000000000000081526004016105ae906111c4565b60405180910390fd5b8060028190555050565b6105c9610de9565b73ffffffffffffffffffffffffffffffffffffffff166105e7610a34565b73ffffffffffffffffffffffffffffffffffffffff161461063d576040517f08c379a0000000000000000000000000000000000000000000000000000000008152600401610634906111c4565b60405180910390fd5b6106476000610df1565b565b6000600360008381526020019081526020016000209050818160000154146106a6576040517f08c379a000000000000000000000000000000000000000000000000000000000815260040161069d90611230565b60405180910390fd5b3373ffffffffffffffffffffffffffffffffffffffff168160020160009054906101000a900473ffffffffffffffffffffffffffffffffffffffff1673ffffffffffffffffffffffffffffffffffffffff161415610739576040517f08c379a0000000000000000000000000000000000000000000000000000000008152600401610730906112c2565b60405180910390fd5b8060040160009054906101000a900460ff161561078b576040517f08c379a000000000000000000000000000000000000000000000000000000000815260040161078290611354565b60405180910390fd5b8060040160019054906101000a900460ff16156107dd576040517f08c379a00000000000000000000000000000000000000000000000000000000081526004016107d4906113e6565b60405180910390fd5b80600301543414610823576040517f08c379a000000000000000000000000000000000000000000000000000000000815260040161081a90611478565b60405180910390fd5b600460009054906101000a900473ffffffffffffffffffffffffffffffffffffffff1673ffffffffffffffffffffffffffffffffffffffff166323b872dd303384600101546040518463ffffffff1660e01b8152600401610886939291906110b8565b600060405180830381600087803b1580156108a057600080fd5b505af11580156108b4573d6000803e3d6000fd5b5050505060018160040160006101000a81548160ff0219169083151502179055506000612710600254346108e89190611498565b6108f29190611521565b9050600081346109029190611552565b90508260020160009054906101000a900473ffffffffffffffffffffffffffffffffffffffff1673ffffffffffffffffffffffffffffffffffffffff166108fc829081150290604051600060405180830381858888f1935050505015801561096e573d6000803e3d6000fd5b507fd5f4a366e9dcd02ac65bfe02c66b76240a965699a245ee9ced7ce608ff2f29808484600101543384866040516109aa959493929190611586565b60405180910390a150505050565b60036020528060005260406000206000915090508060000154908060010154908060020160009054906101000a900473ffffffffffffffffffffffffffffffffffffffff16908060030154908060040160009054906101000a900460ff16908060040160019054906101000a900460ff16905086565b60025481565b60008060009054906101000a900473ffffffffffffffffffffffffffffffffffffffff16905090565b600060036000838152602001908152602001600020905081816000015414610aba576040517f08c379a0000000000000000000000000000000000000000000000000000000008152600401610ab190611230565b60405180910390fd5b3373ffffffffffffffffffffffffffffffffffffffff168160020160009054906101000a900473ffffffffffffffffffffffffffffffffffffffff1673ffffffffffffffffffffffffffffffffffffffff1614610b4c576040517f08c379a0000000000000000000000000000000000000000000000000000000008152600401610b439061164b565b60405180910390fd5b600015158160040160009054906101000a900460ff16151514610ba4576040517f08c379a0000000000000000000000000000000000000000000000000000000008152600401610b9b906116dd565b60405180910390fd5b600015158160040160019054906101000a900460ff16151514610bfc576040517f08c379a0000000000000000000000000000000000000000000000000000000008152600401610bf39061176f565b60405180910390fd5b600460009054906101000a900473ffffffffffffffffffffffffffffffffffffffff1673ffffffffffffffffffffffffffffffffffffffff166323b872dd303384600101546040518463ffffffff1660e01b8152600401610c5f939291906110b8565b600060405180830381600087803b158015610c7957600080fd5b505af1158015610c8d573d6000803e3d6000fd5b5050505060018160040160016101000a81548160ff0219169083151502179055507f5b166b4d0498ff8c4719999cb6154c5d197e6f020f9fbfcf9d347f84576cfab782826001015433604051610ce59392919061178f565b60405180910390a15050565b610cf9610de9565b73ffffffffffffffffffffffffffffffffffffffff16610d17610a34565b73ffffffffffffffffffffffffffffffffffffffff1614610d6d576040517f08c379a0000000000000000000000000000000000000000000000000000000008152600401610d64906111c4565b60405180910390fd5b600073ffffffffffffffffffffffffffffffffffffffff168173ffffffffffffffffffffffffffffffffffffffff161415610ddd576040517f08c379a0000000000000000000000000000000000000000000000000000000008152600401610dd490611838565b60405180910390fd5b610de681610df1565b50565b600033905090565b60008060009054906101000a900473ffffffffffffffffffffffffffffffffffffffff169050816000806101000a81548173ffffffffffffffffffffffffffffffffffffffff021916908373ffffffffffffffffffffffffffffffffffffffff1602179055508173ffffffffffffffffffffffffffffffffffffffff168173ffffffffffffffffffffffffffffffffffffffff167f8be0079c531659141344cd1fd0a4f28419497f9722a3daafe3b4186f6b6457e060405160405180910390a35050565b600080fd5b6000819050919050565b610ecd81610eba565b8114610ed857600080fd5b50565b600081359050610eea81610ec4565b92915050565b60008060408385031215610f0757610f06610eb5565b5b6000610f1585828601610edb565b9250506020610f2685828601610edb565b9150509250929050565b610f3981610eba565b82525050565b6000602082019050610f546000830184610f30565b92915050565b600073ffffffffffffffffffffffffffffffffffffffff82169050919050565b6000610f8582610f5a565b9050919050565b610f9581610f7a565b8114610fa057600080fd5b50565b600081359050610fb281610f8c565b92915050565b600060208284031215610fce57610fcd610eb5565b5b6000610fdc84828501610fa3565b91505092915050565b600060208284031215610ffb57610ffa610eb5565b5b600061100984828501610edb565b91505092915050565b61101b81610f7a565b82525050565b60008115159050919050565b61103681611021565b82525050565b600060c0820190506110516000830189610f30565b61105e6020830188610f30565b61106b6040830187611012565b6110786060830186610f30565b611085608083018561102d565b61109260a083018461102d565b979650505050505050565b60006020820190506110b26000830184611012565b92915050565b60006060820190506110cd6000830186611012565b6110da6020830185611012565b6110e76040830184610f30565b949350505050565b7f4e487b7100000000000000000000000000000000000000000000000000000000600052601160045260246000fd5b600061112982610eba565b91507fffffffffffffffffffffffffffffffffffffffffffffffffffffffffffffffff82141561115c5761115b6110ef565b5b600182019050919050565b600082825260208201905092915050565b7f4f776e61626c653a2063616c6c6572206973206e6f7420746865206f776e6572600082015250565b60006111ae602083611167565b91506111b982611178565b602082019050919050565b600060208201905081810360008301526111dd816111a1565b9050919050565b7f546865206f66666572206d757374206578697374000000000000000000000000600082015250565b600061121a601483611167565b9150611225826111e4565b602082019050919050565b600060208201905081810360008301526112498161120d565b9050919050565b7f546865206f776e6572206f6620746865206f666665722063616e6e6f7420666960008201527f6c6c206974000000000000000000000000000000000000000000000000000000602082015250565b60006112ac602583611167565b91506112b782611250565b604082019050919050565b600060208201905081810360008301526112db8161129f565b9050919050565b7f416e206f666665722063616e6e6f742062652066756c66696c6c65642074776960008201527f6365000000000000000000000000000000000000000000000000000000000000602082015250565b600061133e602283611167565b9150611349826112e2565b604082019050919050565b6000602082019050818103600083015261136d81611331565b9050919050565b7f412063616e63656c6c6564206f666665722063616e6e6f742062652066756c6660008201527f696c6c6564000000000000000000000000000000000000000000000000000000602082015250565b60006113d0602583611167565b91506113db82611374565b604082019050919050565b600060208201905081810360008301526113ff816113c3565b9050919050565b7f5468652042534320616d6f756e742073686f756c64206d61746368207769746860008201527f20746865204e4654205072696365000000000000000000000000000000000000602082015250565b6000611462602e83611167565b915061146d82611406565b604082019050919050565b6000602082019050818103600083015261149181611455565b9050919050565b60006114a382610eba565b91506114ae83610eba565b9250817fffffffffffffffffffffffffffffffffffffffffffffffffffffffffffffffff04831182151516156114e7576114e66110ef565b5b828202905092915050565b7f4e487b7100000000000000000000000000000000000000000000000000000000600052601260045260246000fd5b600061152c82610eba565b915061153783610eba565b925082611547576115466114f2565b5b828204905092915050565b600061155d82610eba565b915061156883610eba565b92508282101561157b5761157a6110ef565b5b828203905092915050565b600060a08201905061159b6000830188610f30565b6115a86020830187610f30565b6115b56040830186611012565b6115c26060830185610f30565b6115cf6080830184610f30565b9695505050505050565b7f546865206f666665722063616e206f6e6c792062652063616e63656c6564206260008201527f7920746865206f776e6572000000000000000000000000000000000000000000602082015250565b6000611635602b83611167565b9150611640826115d9565b604082019050919050565b6000602082019050818103600083015261166481611628565b9050919050565b7f412066756c66696c6c6564206f666665722063616e6e6f742062652063616e6360008201527f656c6c6564000000000000000000000000000000000000000000000000000000602082015250565b60006116c7602583611167565b91506116d28261166b565b604082019050919050565b600060208201905081810360008301526116f6816116ba565b9050919050565b7f416e206f666665722063616e6e6f742062652063616e63656c6c65642074776960008201527f6365000000000000000000000000000000000000000000000000000000000000602082015250565b6000611759602283611167565b9150611764826116fd565b604082019050919050565b600060208201905081810360008301526117888161174c565b9050919050565b60006060820190506117a46000830186610f30565b6117b16020830185610f30565b6117be6040830184611012565b949350505050565b7f4f776e61626c653a206e6577206f776e657220697320746865207a65726f206160008201527f6464726573730000000000000000000000000000000000000000000000000000602082015250565b6000611822602683611167565b915061182d826117c6565b604082019050919050565b6000602082019050818103600083015261185181611815565b905091905056fea26469706673582212204439307e82d2ea5b8942002dbb6c32b8abd23f36df16381dd1f3590aad790cf864736f6c634300080a0033",
  "immutableReferences": {},
  "source": "// SPDX-License-Identifier: MIT\r\npragma solidity ^0.8.0;\r\n\r\nimport \"./NFTCollection.sol\";\r\nimport \"@openzeppelin/contracts/access/Ownable.sol\";\r\ncontract NFTMarketplace is Ownable {\r\n    uint256 public offerCount;\r\n    uint256 public serviceFee; // BPS = 10000. serviceFee = 1000 that means = 10 % \r\n    mapping(uint256 => _Offer) public offers;\r\n\r\n    NFTCollection nftCollection;\r\n\r\n    struct _Offer {\r\n        uint256 offerId;\r\n        uint256 id;\r\n        address user;\r\n        uint256 price;\r\n        bool fulfilled;\r\n        bool cancelled;\r\n    }\r\n\r\n    event Offer(\r\n        uint256 offerId,\r\n        uint256 id,\r\n        address user,\r\n        uint256 price,\r\n        bool fulfilled,\r\n        bool cancelled\r\n    );\r\n\r\n    event OfferFilled(uint256 offerId, uint256 id, address newOwner, uint amount, uint256 fee);\r\n    event OfferCancelled(uint256 offerId, uint256 id, address owner);\r\n    event ClaimFunds(address user, uint256 amount);\r\n\r\n    constructor(address _nftCollection, uint _serviceFee) {\r\n        nftCollection = NFTCollection(_nftCollection);\r\n        serviceFee = _serviceFee;\r\n    }\r\n\r\n    function makeOffer(uint256 _id, uint256 _price) public {\r\n        nftCollection.transferFrom(msg.sender, address(this), _id);\r\n        offerCount++;\r\n        offers[offerCount] = _Offer(\r\n            offerCount,\r\n            _id,\r\n            msg.sender,\r\n            _price,\r\n            false,\r\n            false\r\n        );\r\n        emit Offer(offerCount, _id, msg.sender, _price, false, false);\r\n    }\r\n\r\n    function fillOffer(uint256 _offerId) public payable {\r\n        _Offer storage _offer = offers[_offerId];\r\n        require(_offer.offerId == _offerId, \"The offer must exist\");\r\n        require(\r\n            _offer.user != msg.sender,\r\n            \"The owner of the offer cannot fill it\"\r\n        );\r\n        require(!_offer.fulfilled, \"An offer cannot be fulfilled twice\");\r\n        require(!_offer.cancelled, \"A cancelled offer cannot be fulfilled\");\r\n        require(\r\n            msg.value == _offer.price,\r\n            \"The BSC amount should match with the NFT Price\"\r\n        );\r\n        //owner cut\r\n\r\n        nftCollection.transferFrom(address(this), msg.sender, _offer.id);\r\n        _offer.fulfilled = true;\r\n        uint fee = msg.value * serviceFee / 10000;\r\n        uint amount_left = msg.value - fee;\r\n        payable(_offer.user).transfer(amount_left);\r\n\r\n        emit OfferFilled(_offerId, _offer.id, msg.sender, amount_left, fee);\r\n    }\r\n\r\n    function cancelOffer(uint256 _offerId) public {\r\n        _Offer storage _offer = offers[_offerId];\r\n        require(_offer.offerId == _offerId, \"The offer must exist\");\r\n        require(\r\n            _offer.user == msg.sender,\r\n            \"The offer can only be canceled by the owner\"\r\n        );\r\n        require(\r\n            _offer.fulfilled == false,\r\n            \"A fulfilled offer cannot be cancelled\"\r\n        );\r\n        require(\r\n            _offer.cancelled == false,\r\n            \"An offer cannot be cancelled twice\"\r\n        );\r\n        nftCollection.transferFrom(address(this), msg.sender, _offer.id);\r\n        _offer.cancelled = true;\r\n        emit OfferCancelled(_offerId, _offer.id, msg.sender);\r\n    }\r\n\r\n    // Fallback: reverts if Ether is sent to this smart-contract by mistake\r\n    fallback() external {\r\n        revert();\r\n    }\r\n\r\n    function claim(address _recipitient) public onlyOwner {\r\n      payable(_recipitient).transfer(address(this).balance);\r\n    }\r\n\r\n    function setServiceFee(uint _newServiceFee) public onlyOwner {\r\n        serviceFee = _newServiceFee;\r\n    }\r\n}\r\n",
  "sourcePath": "/Users/buitoan/Code/marketplace-bsc/src/contracts/NFTMarketplace.sol",
  "compiler": {
    "name": "solc",
    "version": "0.8.10+commit.fc410830.Emscripten.clang"
  },
  "schemaVersion": "3.4.3",
  "updatedAt": "2021-12-02T04:26:52.444Z",
  "networkType": "ethereum",
  "devdoc": {
    "kind": "dev",
    "methods": {
      "owner()": {
        "details": "Returns the address of the current owner."
      },
      "renounceOwnership()": {
        "details": "Leaves the contract without owner. It will not be possible to call `onlyOwner` functions anymore. Can only be called by the current owner. NOTE: Renouncing ownership will leave the contract without an owner, thereby removing any functionality that is only available to the owner."
      },
      "transferOwnership(address)": {
        "details": "Transfers ownership of the contract to a new account (`newOwner`). Can only be called by the current owner."
      }
    },
    "version": 1
  },
  "userdoc": {
    "kind": "user",
    "methods": {},
    "version": 1
  }
}